:020000040800F2
:1000000088060020050300080D0300080F03000800
:100010001103000813030008150300080000000086
:1000200000000000000000000000000017030008AE
:1000300019030008000000001B0300081D0300084E
:100040001F0300081F0300081F0300081F03000808
:100050001F0300081F0300081F0300081F030008F8
:100060001F0300081F0300081F0300081F030008E8
:100070001F0300081F0300081F0300081F030008D8
:100080001F0300081F0300081F03000800000000F2
:100090000000000000000000000000001F03000836
:1000A0001F0300081F0300081F0300081F030008A8
:1000B0001F0300081F0300081F0300081F03000898
:1000C0001F0300081F0300081F0300081F03000888
:1000D0001F0300081F0300081F0300081F03000878
:1000E0001F0300081F0300081F0300080000000092
:1000F0000000000000000000000000000000000000
:1001000000000000000000000000000000000000EF
:1001100000000000000000001F0300081F0300088B
:1001200000F002F800F03FF80AA090E8000C8244CA
:100130008344AAF10107DA4501D100F034F8AFF2A7
:10014000090EBAE80F0013F0010F18BFFB1A43F0B5
:10015000010318470C1600002C160000103A24BFAB
:1001600078C878C1FAD8520724BF30C830C144BF1C
:1001700004680C607047000000230024002500265E
:10018000103A28BF78C1FBD8520728BF30C148BFFA
:100190000B607047782901F04381002070471FB53C
:1001A0001FBD10B510BD01F07CFA1146FFF7F7FF37
:1001B00001F0C0F801F09AFA03B4FFF7F2FF03BCB4
:1001C00001F0A2FA484810B5016841F00101016050
:1001D0004168464A114041600168454A114001604A
:1001E000016821F480210160416821F4FE01416031
:1001F0004FF41F0181600021C16200F033F83D49D6
:100200004FF00060086010BD30B5374B58683A4A6F
:100210003A4910F00C0003D0042801D0082801D07E
:100220000A6015E058685C6800F470104FF0020531
:1002300014F4803F05EB904007D0DC6A04F00F0413
:10024000641CB2FBF4F24243EAE72D4A50430860D3
:1002500058682A4AC0F30310121D105C0A68C24095
:100260000A6030BD0CB500221F480092019201685F
:1002700041F4803101604FF4A063016801F4003162
:1002800001910099491C0091019911B90099994275
:10029000F3D10168890324D50121019141684160AE
:1002A0004168416041684160416821F47C114160CE
:1002B000416841F498114160016841F0807101602A
:1002C00001688901FCD5416821F003014160416862
:1002D00041F0020141604168C1F381010229FAD174
:1002E0000CBD01920CBD0000001002400000FFF8A0
:1002F000FFFFF6FE08ED00E000127A00000000208B
:1003000000093D000948804709480047FEE7FEE72D
:10031000FEE7FEE7FEE7FEE7FEE7FEE7FEE7FEE7B5
:1003200004480549054A064B70470000C50100080E
:100330002101000888000020880600208802002093
:10034000880200208F4910B5884206D1012104207F
:1003500000F057FA002104203BE08B49884206D187
:100360000121082000F04DFA0021082031E08749E2
:10037000884206D10121102000F043FA002110200C
:1003800027E08349884206D10121202000F039FA74
:10039000002120201DE07F49884206D10121402014
:1003A00000F02FFA0021402013E07B49884206D15B
:1003B0000121802000F025FA0021802009E0774902
:1003C00088420AD184150121204600F01AFA002142
:1003D0002046BDE8104000F014BA10BD10B5012150
:1003E000084600F00EFA0021BDE81040012000F0A0
:1003F00008BAF0B5CC78002204F00F03E40601D56A
:100400008C7823430C784FF00F0C14F0FF0F4FF053
:10041000010E1BD005680E880EFA02F42640A64293
:1004200010D196000CFA06F725EA070703FA06F53D
:10043000CE783D43282E02D0482E02D002E04461FF
:1004400000E00461521C082AE5D305600A88FF2AEF
:100450001CD94468002202F108060EFA06F50E883F
:100460002E40AE420ED196000CFA06F7BC4303FABA
:1004700006F7CE783C43282E00D14561CE78482E31
:1004800000D10561521C082AE5D34460F0BD4FF647
:10049000FF710180022181700421C1707047024602
:1004A000002092680A4200D001207047806880B224
:1004B000704702460020D2680A4200D001207047EF
:1004C000C06880B2704701617047416170470AB1EE
:1004D0000161704741617047C160704741F48032EB
:1004E0008261816182618169806970472C4B10B59E
:1004F0001A684FF68074224042EA001008431860E0
:1005000010BD2849C8617047F0B5254C002801DAB4
:10051000E36900E06368450D2E0185B2C0F3015721
:10052000B540C0F30342032F05D0C6020AD5032607
:100530009640B34307E023F07062636823F0706372
:10054000636002E0AB4343F0706201B12A430028CC
:1005500001DAE261F0BD6260F0BD10B58A0721F0FA
:1005600003040F49120F21440F238C6893409C43CE
:100570008C608B68904003438B6010BD0949C1F8C3
:10058000DC00704700080140000C014000100140F1
:100590000014014000180140001C014000200140EF
:1005A0000000014000002042AC48016841F0010118
:1005B00001604168AA4A114041600168A94A11409E
:1005C0000160016821F480210160416821F4FE018D
:1005D00041604FF41F0181600021C16270479F4953
:1005E0000A6822F480320A600A6822F480220A60D3
:1005F000B0F5803F07D0B0F5802F03D1086840F4F4
:10060000A02008607047086840F48030F9E703468E
:1006100000205909914A01290AD002290AD0516AB9
:1006200003F01F02012393400B4200D001207047CA
:100630001168F5E7116AF3E718B500204FF4A064DC
:1006400000903120FFF7E3FF0099491C0091A1427F
:1006500001D00028F5D03120FFF7D9FF002800D0C5
:10066000012018BD7D4A116821F0F80141EAC0005F
:10067000106070477C4908607047784B5A6808439F
:1006800022F4741210435860704777490866704727
:10069000724B10B5DA6A754C084322401043D86299
:1006A00010BD6E4A516821F003010143516070474B
:1006B0006A48406800F00C007047684A516821F0B1
:1006C000F001014351607047644A516821F4E061D0
:1006D000014351607047614A516821F4605141EA19
:1006E000C000506070475D4A0029517A01D0014333
:1006F00000E08143517270475B49C1F8D8007047F0
:10070000564A516821F440410143516070475349B2
:10071000002281F8202081F82020012802D004281E
:1007200002D1052081F820007047514908607047C8
:100730004A490A6A02430A6270474D4944390860CF
:10074000704730B5454A51684A4B11F00C0103D04F
:10075000042901D0082901D0036015E051685468CC
:1007600001F470114FF0020514F4803F05EB914144
:1007700007D0D46A04F00F04641CB3FBF4F34B43BA
:10078000EAE73D4B5943016051680F2303EA111119
:100790003A4B5C5C0168E14041605468072505EA1A
:1007A00014241C5D21FA04F48460546805EAD424FE
:1007B0001B5DD940C1605268032303EA92322F4B7C
:1007C0001B1F9A5CB1FBF2F1016130BD234A002985
:1007D000516901D0014300E08143516170471F4AD4
:1007E0000029916901D0014300E081439161704784
:1007F0001A4A0029D16901D0014300E08143D16147
:100800007047164A0029D16801D0014300E08143B6
:10081000D1607047114A0029116901D0014300E0FD
:1008200081431161704712494039086070470E4991
:10083000C86470470949C87170470848416A41F067
:10084000807141627047054A0146002092680A4261
:1008500000D00120704701498872704700100240A3
:100860000000FFF8FFFFF6FE00004242F0FFFEFF2F
:100870008004424200127A0000093D001800002066
:10088000994910B588420AD1841401212046FFF706
:10089000B8FF2046BDE810400021FFF7B2BF9349E2
:1008A000884202D10121041404E0914988420AD10E
:1008B0000121C4132046FFF7ADFF2046BDE81040DC
:1008C0000021FFF7A7BF10BD30B502884C8802F4A5
:1008D00041530A88CD8822438C882C4322430C89BB
:1008E00022434C8922438C892243CC8922431A43D8
:1008F0000280828B22F400628283098A018230BDE9
:10090000F0B505460C4602200021AA8B85B00126D1
:100910004FF240031A40AA832884AF8BA268022AB0
:1009200021D0A08800B102266846FFF70AFFE188BF
:100930000098B1F5007F2CD07101B0FBF1F000EB15
:100940008000A1684000B0FBF1F0401D80B20A2198
:10095000B0FBF1F000F00101401A4FF6FF72C0F356
:100960004F0002EA0121821EFE2A01D3022000214B
:10097000E288084302432A8420886188A2890843C8
:10098000A18811430843384340F40060A88305B0B0
:10099000F0BD000AD3E70021018041808180C18041
:1009A000018141818181C18107210182704700213C
:1009B000018041808180C1800222826081817047F4
:1009C0000029018802D041F0400101E021F04001FE
:1009D000018070470029818B02D041F4806101E0E1
:1009E00021F4806181837047090901238B40002A2B
:1009F000828899B201D00A4300E08A43828070471E
:100A0000002A828801D00A4300E08A43828070472E
:100A10008181704780897047A1F57E420188FF3A45
:100A200002D041F4807101E021F4807101807047AF
:100A30000029818802D041F0040101E021F0040185
:100A400081807047028822F40062028002880A4393
:100A500002807047018841F480510180704700296D
:100A6000018802D041F4005101E021F400510180DD
:100A70007047012901D0008B7047808A7047008A37
:100A80007047B1F5804F018803D021F48041018087
:100A9000704741F48041FAE70246002012890A4279
:100AA00000D001207047C9430181704730B501F083
:100AB0000F030125024605FA03F40020A3B2090939
:100AC00005FA01F49188A4B2128921401A4202D099
:100AD000002900D0012030BD01F00F02012191401A
:100AE000C9430181704700000030014000380040D8
:100AF000003C00400288520601D400207047028961
:100B00009207FCD002891206F9D4818101898907F4
:100B1000FCD001890906F9D48089C0B2704770B54C
:100B2000FF4C4FF4801121607E2101EA4000FD4D11
:100B300040F080012846FFF7DDFF00212846FFF73F
:100B4000D9FF1021216070BD70B5F54C0D464FF4F2
:100B5000801121607E21F34E01EA40013046FFF70B
:100B6000C9FF29463046FFF7C5FF1020206070BD41
:100B700070B50D460446FFF7D2FF40EA0501204656
:100B8000BDE87040E0E710B51420FFF7C8FF80070C
:100B900004D10321BDE810401420E9E710BD0F2166
:100BA0000120D1E738B501210420FFF718FE03200A
:100BB0008DF802001024DA488DF80340ADF80040AB
:100BC00069461038FFF715FCD548046038BD10B5EC
:100BD000FFF7E8FF0321D34800F07FFAFFF7DFFFBC
:100BE0008D212A20FFF7B0FF3E212B20FFF7ACFF1D
:100BF0001E212D20FFF7A8FF00212C20FFF7A4FFC6
:100C000070212620FFF7A0FF40211520FFF79CFF51
:100C10003D211120FFF798FFBDE81040B3E770B504
:100C20000D460446FFF77BFF20EA05012046BDE89C
:100C3000704089E72DE9FF5F0025DDF838B01746E1
:100C40008A4681464FF002082E460C2805D0B9F19D
:100C50000E0F04D11225102601E07725302645F02D
:100C600080010220FFF770FF80210420FFF7D7FFEB
:100C700080210A20FFF77CFF00210120FFF764FF9D
:100C8000002406E01AF804100920FFF75DFF641C39
:100C9000A4B2BC42F6D349460120FFF755FFB9F193
:100CA0000C0F03D180210D20FFF762FF4FF4FA648F
:100CB0000420FFF734FF641E24040746240C03D0ED
:100CC000F80701D13742F3D080210D20FFF7A7FFAD
:100CD0003CB10620FFF723FF10F01B0F05D04FF0AB
:100CE000020804B04046BDE8F09F2F404FF00008D6
:100CF000F80701D04FF00108B9F10C0FF1D10A202B
:100D0000FFF70DFF05460C20FFF709FF10F0070065
:100D10004FEAC50104D008390844ABF8000001E0EF
:100D2000ABF8001025B1102D00D91025002408E0E3
:100D30000125FBE70920FFF7F2FE03990855641C23
:100D4000A4B2AC42F6D3CCE72DE9F0410E460746FB
:100D5000154604210520FFF762FF80210A20FFF7D6
:100D600007FF002405E0395D0920FFF7EDFE641C54
:100D7000E4B2B442F7D303210120FFF7E5FEFF24DC
:100D80000520FFF7CCFE641E14F0FF0401D04007DD
:100D9000F6D52220FFF7C3FE28702120FFF7BFFE03
:100DA0006870BDE8F0810EB550208DF80400002079
:100DB0008DF805000DF10602022101A8FFF7C4FF1E
:100DC00002A801AB0090042219460C20FFF732FF65
:100DD0000EBD7CB50546002421460D20FFF7B4FE6C
:100DE000932028702020687001A82B4600900222D2
:100DF00019460C20FFF71EFF00280AD10022A95C2B
:100E0000521C4C40D2B2042AF9D3A95CA14200D0B2
:100E100002207CBD7CB50C46054607210D20FFF75E
:100E200093FE257001A823460090012219460C204C
:100E3000FFF700FF18B9BDF80410102900D00220F8
:100E40007CBD70B5054601462620FFF7E3FF040090
:100E500003D12846FFF7BDFF0446FFF7A4FF204655
:100E600070BD10B50022835C8C5CA34201D00220CF
:100E700010BD521CD2B2052AF5D3002010BD0321AB
:100E80001420CCE610B586B093218DF804107021A3
:100E90008DF80510002101AA435C5418491CC9B201
:100EA000A3700529F8D3072101A8D21DFFF74CFF35
:100EB00004A801AB0090092219460C20FFF7BAFEE6
:100EC00018B9BDF81000182802D0002006B010BDD7
:100ED0009DF80400FAE730B585B08DF804008DF870
:100EE0000510002001A9145C0D18401CC0B2AC70A4
:100EF0000628F8D300200C181A5C401CC0B22272DD
:100F00000428F8D304A800900B460C220E20FFF70B
:100F100091FE040009D10820FFF701FE000703E05D
:100F2000100801400030014000D4022405B02046E2
:100F300030BD1CB50C46302121706070A21C02210E
:100F40002046FFF701FF01A823460090042219461E
:100F50000C20FFF76FFE18B9BDF80410902900D0DF
:100F600002201CBD70B588B00C46A0218DF804107D
:100F700001AD8DF8050002212846AA1CFFF7E4FE0A
:100F800006AE01AB042219460C200096FFF752FE74
:100F900038BBBDF81800042823D19DF8040000F0E8
:100FA0000F000A281DD10020215C2954401CC0B22A
:100FB0001028F9D305AA102101A8FFF7C5FE01AB3F
:100FC000122219460C200096FFF734FE48B9BDF8EE
:100FD0001810042905D19DF8041001F00F010A2909
:100FE00000D0022008B070BD08B501210803FFF74A
:100FF000F6FB03208DF8020010208DF80300E0209E
:10100000ADF800006946C748FFF7F3F908BD10B511
:10101000032801D1FFF7E8FF10BD10B5032801D167
:10102000FFF7E2FF10BD2DE9F04F85B00446DDE982
:101030000EA9984615468B466846FFF7ACFCBA48A1
:10104000BA4F0026844208D1B86940F48050B86194
:101050005846FFF7E2FFADF80460B548844208D176
:10106000F86940F48040F8615846FFF7D0FFADF8CA
:101070000460ADF80C80ADF800604FF40070ADF87E
:101080000E90ADF802A0ADF80A0045B10120012D87
:1010900008D00221022D08D0032D0BD00EE0ADF8B0
:1010A000066004E0ADF8066006E0ADF80610ADF8A5
:1010B000086003E0ADF80610ADF80800208820F0C5
:1010C0004000208069462046FFF7FEFB208840F064
:1010D0004000208005B0BDE8F08F2DE9FC410446BA
:1010E000914800250F464FF48276844205D1CDE920
:1010F000006520230022FFF796FF8D48844206D129
:10110000CDE90065202300223946FFF78CFFBDE8BA
:10111000FC812DE9FC41044683480025174688469A
:101120004FF48276844204D1CDE900652023FFF795
:101130007AFF7F488442EAD1CDE9006520233A4610
:101140004146FFF770FFE2E72DE9FC470446DDE981
:101150000A6575481F4690468946844205D1CDE907
:10116000006513463A46FFF75EFF7148844206D198
:10117000CDE9006543463A464946FFF754FFBDE8CE
:10118000FC8730B585B00C00054617D06846FFF7E0
:10119000D8FA6548854201D1039B00E0029B0020FC
:1011A0000125421C05FA02F1B3FBF1F1A14202D87C
:1011B000C00005B030BDD0B20828F2D33820F8E71F
:1011C00002880388C2F3C02223F040030380012970
:1011D000018808D021F400610180018841F04001BC
:1011E00001801046704741F40061F5E730B504888E
:1011F000640614D50489A407FCD004892406F9D414
:1012000000240AE00D5D85810589AD07FCD00589C4
:101210002D06F9D485891555641C9C42F2D330BD46
:1012200010B503885B0613D503899B07FCD003899F
:101230001B06F9D4002309E0CC5C84810489A4074F
:10124000FCD004892406F9D484895B1C9342F3D32F
:1012500010BD30B50488640613D50489A407FCD0FA
:1012600004892406F9D4002409E082810589AD07A8
:10127000FCD005892D06F9D485890D55641C9C4246
:10128000F3D330BD30B50488640616D50489A407AD
:10129000FCD004892406F9D400240CE031F8145061
:1012A00085810589AD07FCD005892D06F9D485898E
:1012B00022F81450641C9C42F0D330BD10B5038852
:1012C0005B0614D503899B07FCD003891B06F9D460
:1012D00000230AE031F8134084810489A407FCD07C
:1012E00004892406F9D484895B1C9342F2D310BD8F
:1012F00030B50488640614D50489A407FCD0048999
:101300002406F9D400240AE082810589AD07FCD0C7
:1013100005892D06F9D4858921F81450641C9C4256
:10132000F2D330BD000801400030014000100240FF
:101330000038004094B011A0D0E90010CDE912109F
:10134000FEF740FFFFF743FC03A8FFF77AFD0028F4
:10135000FAD112A903A8FFF784FD9DF80E009DF8AD
:1013600010209DF80F108DE807009DF80D309DF8B6
:101370000C2004A105A800F017F8E5E743DC52B6FD
:101380007B0000003078253032780A307825303202
:10139000780A3078253032780A3078253032780A69
:1013A00030782530327800000FB41CB5074B06AA00
:1013B0007B4469460090059800F05BF9002069467F
:1013C00000F06AF91CBC5DF814FB0000E5020000A7
:1013D00070B5044685690068C10601D5302600E075
:1013E0002026C00707D070BDD4E9012130469047C0
:1013F000206A401C20626D1EF6D570BD70B5044693
:1014000085690078C00707D170BDD4E9012120208B
:101410009047206A401C20626D1EF6D570BD00000A
:1014200070B504460D4621461068AFF30080218850
:10143000090502D50F4A7A4402E00E4A7A440E3278
:10144000002104F1240305E000F00F060009965D79
:101450005E54491C0028F7D120780023000704D5EA
:10146000702D02D009B1022311322046BDE8704030
:1014700000F0A1B8EA0200002DE9F05F89460446B9
:101480004FF0000ADFF824B1FB44C0F820A020464A
:10149000E168884700287DD0252806D0D4E90121BD
:1014A0009047206A401C2062F1E700255F462046F5
:1014B000E16888472028064607DB312E05D2B81997
:1014C00010F8200C08B10543F1E7A80701D525F075
:1014D0000405C4F81CA00027C4F818A02A2E09D0BF
:1014E000304600F018F938B304EB8708303EC8F8EE
:1014F000186019E059F8041B204604EB870291613B
:10150000E1688847012F064618D1E069002820DAF3
:1015100025F020051DE0D8F8180000EB800006EB50
:1015200040003038C8F818002046E1688847064671
:1015300000F0F1F80028EED1012F0AD02E2E08D1AC
:101540002046E16888477F1C0646022F45F02005AB
:10155000C4DBA069002803DA404245F00105A06120
:10156000E80701D025F01005A6B1A6F14100192821
:1015700002D8203645F400654A46314620462560AB
:101580004D46FEF707FE60B1012807D0ED1D25F09E
:10159000070000E007E000F1080978E705F1040919
:1015A00075E730467AE7206ABDE8F09FC002000088
:1015B0007047704770472DE9F0470D4699469246AF
:1015C000044600F124080168880604D5E06921F08A
:1015D0001001216000E00120A84201DD471B00E06E
:1015E0000027A1697A1902EB0900081AA061207886
:1015F000C00602D42046FFF7EBFE002608E0D4E93F
:1016000001211AF806009047206A401C761C2062CF
:101610004E45F4DB2078C0060AD52046FFF7D8FEF9
:1016200006E0D4E9012130209047206A401C206266
:10163000381EA7F10107F4DC07E0D4E9012118F80E
:1016400005009047206A401C2062281EA5F1010574
:10165000F3DC2046FFF7D2FE2078000602D50220F8
:10166000BDE8F0870120FBE701694A1C02610878A8
:10167000704700B58FB0CDE90131002105910549D2
:101680007944CDE9031011466846FFF7F5FE0FB027
:1016900000BD0000E5FFFFFF0A6802F8010B0A60C9
:1016A0007047754600F02CF8AE4605006946534673
:1016B00020F00700854618B020B5FEF731FEBDE8E2
:1016C00020404FF000064FF000074FF000084FF0A9
:1016D000000B21F00701AC46ACE8C009ACE8C0093A
:1016E000ACE8C009ACE8C0098D46704710B50446A7
:1016F000AFF300802046BDE81040FEF75DBD00005E
:10170000004870472800002001491820ABBEFEE7C2
:1017100026000200704730380A2801D201207047A5
:101720000020704730313233343536373839414252
:101730004344454640305800303132333435363733
:1017400038396162636465664030780004000008DF
:101750000000000000000002000100001000000076
:101760008017000800000020280000005C0100082D
:10177000A817000828000020600600007801000873
:1017800000366E01000000000000000001020304AA
:10179000060708090204060800000000010203040D
:0817A000010203040607080919
:0400000508000121CD
:00000001FF
